:020000040800F2
:1000000000C000201D7D00089131000893310008D8
:100010009531000897310008993100080000000070
:100020000000000000000000000000004176000811
:100030009B31000800000000E1760008D371000841
:100040006D7D00086D7D00086D7D00086D7D0008E8
:100050006D7D00086D7D00086D7D00086D7D0008D8
:100060006D7D00086D7D00086D7D00086D7D0008C8
:100070006D7D00086D7D00086D7D00086D7D0008B8
:100080006D7D00086D7D00086D7D00086D7D0008A8
:100090006D7D00086D7D00086D7D00086D7D000898
:1000A0009D3100086D7D00086D7D00086D7D0008A4
:1000B0006D7D000800000000000000006D7D00085C
:1000C0006D7D00086D7D00086D7D00086D7D000868
:1000D0006D7D00086D7D00086D7D00086D7D000858
:1000E0006D7D00086D7D000800000000000000002C
:1000F0000000000000000000000000000000000000
:10010000000000006D7D0008000000006D7D00080B
:1001100000000000000000006D7D00086D7D0008FB
:100120006D7D00086D7D00086D7D00086D7D000807
:100130006D7D0008000000000000000000000000CD
:100140006D7D00086D7D00086D7D000800000000D9
:100150006D7D00086D7D00086D7D00086D7D0008D7
:100160006D7D00086D7D00086D7D000800000000B9
:100170006D7D00086D7D000800000000000000009B
:100180006D7D00086D7D00086D7D00080000000099
:1001900010F8012B11F8013B012A28BF9A42F7D031
:1001A000D01A7047034613F8012B002AFBD1181A06
:1001B000013870470000000000000000000000004F
:1001C00001F0FF01102A2BDB10F0070F08D010F808
:1001D000013B013A8B422DD010F0070F42B3F6D10C
:1001E000F0B441EA012141EA014122F007047FF025
:1001F00000070023F0E80256083C85EA010586EA7C
:10020000010685FA47F5A3FA87F586FA47F6A5FAB7
:1002100087F68EB9EED1F0BC01F0FF0102F00702C3
:1002200032B110F8013B013A83EA010313B1F8D16E
:100230000020704701387047002D06BF354603384F
:10024000073815F0010F07D1013015F4807F02BF88
:10025000013015F4C03F0130F0BC0138704700BFD9
:1002600053B94AB9002908BF00281CBF4FF0FF311D
:100270004FF0FF3000F00CB8ADF1080C6DE904CE82
:1002800008F04CFFDDF804E0DDE9022304B070471C
:10029000704700BF0348044B834202D0034B03B1B5
:1002A00018477047900000209000002000000000D8
:1002B0000548064B1B1AD90F01EBA301491002D0C8
:1002C000034B03B1184770479000002090000020B6
:1002D0000000000010B5064C237843B9FFF7DAFFA1
:1002E000044B13B10448AFF300800123237010BD09
:1002F00090000020000000001494000808B5054B91
:100300001BB105490548AFF30080BDE80840FFF781
:10031000CFBF00BF0000000094000020149400082C
:1003200008B50268034B9A4200D008BD03F06CFB8D
:10033000FBE700BF0040014072B6FEE700B597B092
:100340004422002105A807F05BFF002300930193DE
:100350000293039304934FF4007004F05DFC0028B3
:100360002FD104F049FC1A4AD2F8903023F0180338
:10037000C2F8903006230593012207924FF4807350
:1003800008931023099302230F93109311920A22CA
:100390001292072213921493159305A803F0F6FB0B
:1003A00088B90F230093032301930023029303933F
:1003B00004930421684603F01FFF30B917B05DF8BD
:1003C00004FBFFF7B9FFFFF7B7FFFFF7B5FF00BF6B
:1003D00000100240F0B5ADB003F007FBFFF7AEFF31
:1003E00005F04EF805F010F905F098F805F0B4F9AD
:1003F00005F030F907F08AFA642003F017FB02F0E9
:10040000DDFB4FF6FF7002F0CDFB0CAD80263246CF
:100410000021284607F0F4FE00248DF82F408DF8C7
:100420002E408DF82D4002F0C5FD0DF12D020DF18D
:100430002E010DF12F0002F0DFFD9DF82D3001930C
:100440009DF82E3000939DF82F30814A3146284682
:1004500007F0CAFD2846FFF7A5FE7E4F4FF0FF3399
:1004600082B22946384604F00BFF00F017F9C3B2F8
:10047000794A3146284607F0B7FD2846FFF792FE35
:100480004FF0FF3382B22946384604F0F9FE734B31
:1004900007AD0FCB07C52B80ADF82A400394049419
:1004A000059406946E4800F0C7F9002800F0B68065
:1004B00005460CAC836B6B4A8021204607F094FD07
:1004C0002046FFF76FFE634E4FF0FF3382B22146A6
:1004D000304604F0D5FE4FF480520021284600F04B
:1004E0006FFA0346604A8021204607F07DFD2046D2
:1004F000FFF758FE4FF0FF3382B22146304604F03A
:10050000BFFE102307AA0021284600F005FA034683
:10051000564A8021204607F067FD2046FFF742FE3D
:100520004FF0FF3382B22146304604F0A9FE03AFFC
:1005300010233A460021284600F09AF90346009716
:100540004B4A8021204607F04FFD2046FFF72AFE48
:100550004FF0FF3382B22146304604F091FE454D04
:1005600000230093444B3E4A4449284601F0FEFFD5
:1005700003460CAC424A8021204607F035FD204658
:10058000FFF710FE334F4FF0FF3382B2214638465B
:1005900004F076FE3B4E3C4A3146284601F024FFEB
:1005A00003463A4A8021204607F01EFD2046FFF709
:1005B000F9FD4FF0FF3382B22146384604F060FE69
:1005C0003146284601F066FE034600283AD0304AFC
:1005D0008021204607F008FD0CAC2046FFF7E2FD25
:1005E0004FF0FF3382B221461A4804F049FE06F06C
:1005F000FDFD05F06BF906F00BFE01244FF6FF73CD
:100600000093002322465021184602F0B9FC013421
:10061000E4B24FF4FA7003F009FAEFE70CAE344697
:100620001C4D0FCD0FC495E8030084E8030030464D
:10063000FFF7B8FD4FF0FF3382B23146384604F081
:100640001FFE8CE7144B0CAC0FCB07C42380C3E711
:1006500060940008D80500207894000830940008C1
:1006600088940008AC940008C4940008D89400084A
:10067000EC940008AC000020000000200895000861
:100680001095000834950008289500083C9500084E
:1006900050950008949400085C95000810B500F08F
:1006A0003BF8041E06DB00F0A9F8041E04DD124B23
:1006B0001B7893B1002C0EDC0F4B00221A703022F5
:1006C0000E490F4807F018FC0E490F4807F014FCBC
:1006D0000E4807F081FC204610BD074B01221A701E
:1006E0000B4807F009FC07490A4807F005FC0748D2
:1006F00007F072FCEFE700BF1804002098A0000884
:10070000D495000890950008F0950008CC95000855
:100710007C95000898950008094B1B786BB910B5BB
:10072000002424B1064B01221A70002010BD054B95
:100730005B6A03B198470134F3E70020704700BFBC
:1007400019040020A8A5000838B5054600240CB1FE
:10075000002038BD18220449284607F059FD08B189
:100760000134F4E70048F4E7A8A50008034B1B6830
:10077000C01A8011024B53F8200070472804002053
:10078000240400202DE9F04180460F46002403E0B8
:10079000144B43F824000134BC4220D208EB8415EA
:1007A00005F11C00FFF7D0FF06460028F3D06A6B66
:1007B000C3699A42ECDB90220B490C4807F09CFB82
:1007C000F3696A6B291D0A4807F096FB094807F090
:1007D00003FC094B00221A604FF0FF3000E00020BC
:1007E000BDE8F08124040020E0A00008D4950008B2
:1007F00024960008CC9500081C04002008B50A4B7C
:100800001B7813B1094B186808BD0948094B1860DB
:100810000121064B1960FFF7B5FF10B9024B012209
:100820001A70024B1868EFE7200400201C04002017
:10083000FCA000082804002070B50646002500E052
:100840000135094B1B68AB420AD9084B1C6804EB05
:100850008514211D3046FFF79BFC0028F0D100E0F5
:100860000024204670BD00BF1C0400202804002086
:10087000F8B504461E46C818A36B98420FD80D461B
:1008800017462046FFF772FFC0B1836A606B32469D
:10089000394628449847051E22DB2846F8BD4FF408
:1008A000CF721749174807F027FB174807F024FBBA
:1008B000164807F091FB4FF0FF35EEE740F2A51226
:1008C0000F49104807F018FB221D04F11C011048C5
:1008D00007F012FB0D4807F07FFB4FF0FF35DCE718
:1008E0004FF4D6720649074807F006FB04F11C01D5
:1008F000084807F001FB054807F06EFBCDE700BF95
:10090000CCA00008D495000874960008CC95000887
:10091000AC960008F8960008F8B504461E46C818BC
:10092000A36B98420FD80D4617462046FFF71EFFCF
:10093000C0B1C36A606B3246394628449847051EE9
:1009400022DB2846F8BD40F2C7121749174807F0C6
:10095000D3FA174807F0D0FA164807F03DFB4FF0DE
:10096000FF35EEE74FF4E7720F49104807F0C4FA7D
:10097000221D04F11C01104807F0BEFA0D4807F0D3
:100980002BFB4FF0FF35DCE740F2D5120649074854
:1009900007F0B2FA04F11C01084807F0ADFA054867
:1009A00007F01AFBCDE700BFB8A00008D4950008F7
:1009B0002C970008CC95000864970008B0970008B1
:1009C00070B516468A18836B9A420DD804460D46B8
:1009D000FFF7CCFEB8B1036B606B314628449847F3
:1009E000051E22DB284670BD4FF4F77216491748E2
:1009F00007F082FA164807F07FFA164807F0ECFA7B
:100A00004FF0FF35EEE740F2F5120F490F4807F0BF
:100A100073FA221D04F11C010F4807F06DFA0D480E
:100A200007F0DAFA4FF0FF35DCE74FF4FE720649C3
:100A3000064807F061FA04F11C01084807F05CFA67
:100A4000044807F0C9FACDE7A4A00008D49500082F
:100A5000E8970008CC950008209800086C980008DA
:100A600038B500B31546044649B3002A33D0027E98
:100A7000002A40F0958001600371049B4362437E2D
:100A8000002B34D0E3685A1E134261D12269B2FBB5
:100A9000F3F103FB1121002966D1B2FBF3F2012A25
:100AA0006FD900207DE03F4807F026FA202007F0AC
:100AB00035FA3D4A3D493E4807F01EFAFEE73948FF
:100AC00007F01AFA202007F029FA374A394938483E
:100AD00007F012FAFEE7334807F00EFA202007F07D
:100AE0001DFA314A3449324807F006FAFEE7FFF7AB
:100AF000D5FD2846FFF7A0FEA06050B11C30FFF7DF
:100B000023FE056AE36883B9E560A3689B6B2361F4
:100B1000B8E7244807F0F0F9202007F0FFF929464C
:100B2000264807F0E9F904203BE0B3FBF5F205FBAA
:100B30001233002BE9D01B4807F0DEF9202007F024
:100B4000EDF92A46E1681E4807F0D6F9082028E0AA
:100B5000144807F0D1F9202007F0E0F9124A1949AA
:100B6000134807F0C9F9FEE70E4807F0C5F9202041
:100B700007F0D4F9E2682169134807F0BDF90820AD
:100B80000FE0084807F0B8F9202007F0C7F92169FD
:100B9000E368B1FBF3F10D4807F0AEF9082000E07F
:100BA000002038BDA49800083CA10008B0980008B7
:100BB000B498000834950008D4980008DC98000820
:100BC00000990008409900086C990008AC99000849
:100BD000437E13B9806804307047002070470000DE
:100BE000F0B583B00446F1B9012303761B4B1B78A3
:100BF0000BB103B0F0BD1A4C204607F07DF9202060
:100C000007F08CF91749184807F076F9204607F0E5
:100C100073F9202007F082F9144807F0DDF90F4B33
:100C200001221A70E5E70D46837E002BE1D10C48C6
:100C300007F062F9202007F071F9237963B90C4FAE
:100C400026682046FFF7C4FF034600953246394622
:100C5000084807F051F9CCE7074FF1E72C040020D2
:100C6000A4980008089A0008109A0008349A00080E
:100C7000F89900087C9A0008009A00080023072BC6
:100C800010D803EB430200EBC202D2F8AC228A4236
:100C900001D00133F3E703EB4303DB0003F52A73D1
:100CA000184470470020704738B505461446FFF7D2
:100CB000E5FF28B14461E96843681B1B0B440361ED
:100CC00038BD10B51446FFF7D9FF00B1447010BD10
:100CD00010B4CB68B3F1FF3F0DD0C46804FB03F33D
:100CE0001A440469A24208D848681844844207D9C3
:100CF0005DF8044B7047C368F2E74FF0FF30F7E749
:100D00000020F5E7002300E001338B4205D2C25CEE
:100D1000203A5E2AF8D900207047012070470378F6
:100D200023B190F801C0BCF1010F05D013B1437895
:100D3000022B05D0002070470B6801330B60F9E7E8
:100D4000136801331360F5E703460078D0B110B49F
:100D50004A6858321C69944210D99A78012A09D0FD
:100D6000022A01D000200AE00A6892F830200AB175
:100D7000002004E08A685B69136000E000205DF8F1
:100D8000044B70477047037823B10B6801330B6045
:100D900043681360002070471378012B03D0437819
:100DA0001370002070474378023BDBB2012BF6D86A
:100DB00043680B60F3E770B504461D46002001F060
:100DC00097FC000C4FF6FF7C4026B646002210E050
:100DD000153204EBC202556070BDBEF1400F1BD14D
:100DE000964605E002F1150334F8333083422CD0E7
:100DF00001323F2A32D8B5F1FF3FF3D002F115039B
:100E000034F833308342E3D002F1150104EBC10121
:100E10004968B1F1FF3FE0D0B1F1FF3FE8D002F106
:100E2000150304EBC3035B882BB102F1150104EB3E
:100E3000C101013B4B8002F1150104EBC1014B885C
:100E40006345D5D29C461646D2E7153204EBC20064
:100E50004FF0FF33436000234380BDE7BEF13F0FF7
:100E600009D80EF1150E04EBCE035D6024F83E00A8
:100E700040225A80B0E73F2EAED8153604EBC603A9
:100E80005D6024F8360040225A80A5E7F0B589B0AD
:100E900007460E461546C368B1FBF3F103FB01F1AB
:100EA000FFF7ECFE00283CD04369B3423ED0344605
:100EB00028E00438B04241D20B461B2B21D8E01861
:100EC000A8421ED203F120026A4412F820CC591C19
:100ED00001F120026A4412F8202C0CEB022C03F1E1
:100EE00022026A4412F8202C0CEB024C23336B4490
:100EF00013F8203C0CEB0363114A9342D9D00B4604
:100F0000DBE71C34AC4217D204F12003AB420AD217
:100F100020236A462146384601F02FFC48B90023B9
:100F2000CBE73446EEE74FF0FF3007E04FF0FF30FD
:100F300004E04FF0FF3001E04FF0FF3009B0F0BDAA
:100F40004B5630304B78012B26D070B506460C46F8
:100F50001546116DB1F1FF3F19D06268C3681A449C
:100F600091421CD86B78ABB1AB681944103A30464B
:100F7000FFF78CFFB0F1FF3F14D06368F2681344B1
:100F8000834212D3AB6823B94FF0FF3001E06068B1
:100F9000103070BD0131E9E74FF0FF3070474FF07E
:100FA000FF30F6E74FF0FF30F3E74FF0FF30F0E7A8
:100FB0002DE9F04F93B006468B46924601930020F0
:100FC00001F096FB070C002406E0153406EBC4067E
:100FD000403373803AE001343F2C39D804F11503D3
:100FE00006EBC3035D68B5F1FF3FF4D004F11503D0
:100FF00036F83330BB42EED10DF108084FF040090E
:101000004A460021404607F0FBF84B46424605F1B0
:101010001801304601F0B1FB52464146584607F0F0
:10102000F7F80028D7D104F1150306EBC3035A687B
:1010300001990A605B884FF6BE729342C5D904F1EC
:10104000150306EBC3034FF6FF725A80012000E040
:10105000002013B0BDE8F08FF8B504460D461746E2
:101060000846FFF79FF8A378834212D166788EB1C5
:101070002378022B01D000260CE00246294604F119
:10108000100007F0C5F808B1002603E001233B700B
:1010900000E000263046F8BD2DE9F04790B08146CB
:1010A0000E460AAC18232246096D01F066FB0621A4
:1010B000204601F047FBC0B230700C9BB360B3F127
:1010C000FF3F14D0D9F81020934210D8172B0ED917
:1010D00004220EA9002001F00BFB04220FA901F04D
:1010E00007FB0546B368A3F11808002438E018236D
:1010F000B360052805D100237370022010B0BDE84D
:10110000F087052434703E4806F0F6FED9F800500A
:101110004846FFF75DFD024629463A4806F0ECFED8
:10112000316D394806F0E8FE01230193009406234F
:101130000AAA316D484601F0A5FBDCE72027316D96
:1011400021440DF1080A3B4652461831484601F049
:1011500014FB3A465146284601F0CAFA05463C447B
:10116000444506D204F120034345E7D3A8EB040726
:10117000E5E70D9BAB4224D09DF83840402C28BFBA
:10118000402400237370316D06F1100523462A4672
:101190001831484601F0F1FA194806F0ADFED9F8C9
:1011A00000704846FFF714FD02463946154806F020
:1011B000A3FE336D2A462146144806F09DFE022008
:1011C0009CE701237370346D18349DF8383006F1B4
:1011D00010022146484601F0D0FA9DF838301C44F0
:1011E00074650F9AF260B3703F2B02D93F238DF8DC
:1011F00038309DF838301E44002030747EE700BF40
:10120000A89A0008B89A0008C49A0008F49A00083E
:101210002DE9F04184B005460C464978012907D0F4
:101220001F46022914D00026304604B0BDE8F081E4
:101230000123019302270097042303AA616801F0A8
:1012400021FB06463A4661682846FFF73AFDEBE780
:101250002369572B02D99B1A572B16D801230193C8
:101260004FF00308CDF80080042303AA61682846E4
:1012700001F008FB0646424661682846FFF721FD5B
:10128000002FD1D001233B70CEE717B100263E706E
:10129000CAE70026C8E730B54FF0080C002326E067
:1012A0000A7842B903EB430300EBC3004FF0FF336E
:1012B000C0F8AC3230E003EB4303DB0003F52A73E4
:1012C000C218D1F800E0D1F804C08D68CC6840F8AD
:1012D00003E0C2F804C09560D460D1F810E0D1F802
:1012E00014C0C2F810E0C2F814C015E00133072B97
:1012F0000DD803EB430200EBC202D2F8AC224C68DB
:10130000A242CDD0B2F1FF3FF0D19C46EEE70B7880
:1013100013B1BCF1070F00D930BD0CEB4C03DB005F
:1013200003F52A73C218D1F800E0D1F804C08D6823
:10133000CC6840F803E0C2F804C09560D460D1F8EE
:1013400010E0D1F814C0C2F810E0C2F814C0E3E70E
:10135000F0B59BB005460E4614461F460022169275
:10136000179218921992C368B1FBF3F203FB1212A1
:10137000D2B95CB3FFF782FC0346002838D01FB116
:101380004269B2F1FF3F33D019685A689D68D86846
:1013900021606260A560E06019695A69216162613B
:1013A000002630461BB0F0BD564806F0A5FD2C685F
:1013B0002846FFF70DFC02462146534806F09CFDE7
:1013C000524A5349534806F097FDFEE74D4806F050
:1013D00093FD2C682846FFF7FBFB024621464A484E
:1013E00006F08AFD494A4C494A4806F085FDFEE769
:1013F000102316AA3146284601F0BFF90023637076
:10140000A3706660179BA360444A934225D1189B42
:10141000013B13F1030F20D901232370189BE360D4
:10142000042116A801F08EF9607004210DF1590015
:1014300001F088F9A070002F53D000232361636866
:10144000103363616678012E0ED0022E11D0002673
:1014500021462846FFF71FFFA3E7002323704FF024
:10146000FF33E36008269CE7EB68103B236100260E
:10147000EEE7EA68103A226114930FE06369029A7A
:101480001344636123699B1A23616A4621462846F7
:10149000FFF758FD1490B0F1FF3F10D06946284681
:1014A000FFF7FAFD9DF80130002BE7D19DF80030E1
:1014B000012BE3D0052BE1D00023236100E00026BF
:1014C0006268EB681A446169284601F087F963692C
:1014D0008342BDD06061E96863681B1A0B442361D5
:1014E000B6E761682846FFF7C9FB08B1002658E750
:1014F0004FF0FF3363610026266121462846FFF73F
:10150000CAFE4EE7A89A0008B89A00086CA1000825
:101510002C9B0008B4980008489B000846444230C1
:101520002DE9F04387B004460D46914698460E9F3C
:101530004169002608E0324669462046FFF7C8FBAD
:101540000146B0F1FF3F26D0E3681E4400236A46FF
:101550002046FFF7FDFE0028EDD1002FEBD09DF8CF
:101560000130023BDBB2012BE5D8019B10332B6528
:1015700029462046FFF790FD424649462846B8478F
:1015800048B92A4669462046FFF7DCFC2865B0F1D9
:10159000FF3FEDD1CFE707B0BDE8F08300B585B0E0
:1015A0008C46114600238DF80F30064B00930DF149
:1015B0000F036246FFF7B4FF9DF80F0005B05DF81A
:1015C00004FB00BF591000082DE9F04105460C4608
:1015D00016460846FEF7E6FD074606F150030246AA
:1015E00021462846FFF7E4FC48B932462146284602
:1015F000FFF7D4FF804640B94046BDE8F081804601
:1016000031462846FFF748FDF6E7336D3A46214656
:101610002846FFF7D0FBEFE72DE9F04196B0804672
:1016200015461E461C9F6A46FFF7CEFF70B10FB1EC
:10163000039B3B60039CB44200D334464DB1234628
:101640002A461599404601F098F802E02FB100248F
:101650003C60204616B0BDE8F0810024F9E72DE992
:10166000F84F83460D4617469A46DDF82C809DF8C4
:1016700030904469002613E0B9F1000F1FD1B8F192
:10168000000F04D00A9A51462846C047F0B93246A6
:1016900029465846FFF71CFB0446B0F1FF3F15D022
:1016A000DBF80C301E4400232A4621465846FFF73B
:1016B0004FFE002FE0D06B78BB42E8D1DCE701237E
:1016C0002A4621465846FFF743FED8E7BDE8F88F83
:1016D00070B590B004460D46002309930893029319
:1016E0001B4B019308AB009309AB01220AA9FFF73A
:1016F000B6FF184806F000FC26682046FFF768FA97
:1017000002463146144806F0F7FB40F2894213497D
:10171000134806F0F1FB01220999124806F0ECFB90
:10172000099B012B04D9002384F8303010B070BD20
:1017300005940695089B0793002202920A4B019399
:10174000009205AB0AA92046FFF789FFEBE700BF2F
:10175000870D0008A89A0008B89A0008509B000856
:10176000E4950008649B00086920000808B5016939
:10177000FFF7AEFF08BD027862B108B58378032B8E
:1017800001D0002008BD012381F830300846FFF762
:10179000EDFFF6E70020704730B58BB004460D46EC
:1017A00013464FF0FF3209920022089207920490EC
:1017B000059309AB06930292244B019307AB009368
:1017C00008ABFFF74CFF079B43B9089B1BB1099A75
:1017D000B2F1FF3F0FD009980BB030BD0123029347
:1017E0001B4B01930023009304AB022229462046A1
:1017F000FFF735FFE9E7012B02D894F830305BB1F1
:1018000001220292124B01930023009304AB29465C
:101810002046FFF724FFDEE70E4806F06DFB256843
:101820002046FFF7D5F9024629460B4806F064FB2F
:1018300040F2A13209490A4806F05EFB094806F069
:10184000CBFB012384F83030C5E700BF1F0D000833
:10185000490D0008A89A0008B89A0008509B000893
:10186000E49500089C9B00082DE9F843044689464E
:1018700090460026424649462046FFF78DFF054622
:10188000B0F1FF3F20D194F83070E7B1DEB91A48CB
:1018900006F032FB25682046FFF79AF902462946F2
:1018A000164806F029FB40F233421549154806F068
:1018B00023FB4146144806F01FFB41462046FFF734
:1018C00007FF3E46D6E716B92846BDE8F8830A4822
:1018D00006F012FB26682046FFF77AF902463146E9
:1018E000064806F009FB4146084806F005FB0023C0
:1018F00084F83030E8E700BFA89A0008B89A0008DA
:10190000509B0008E4950008C89B00080C9C000848
:1019100008B51A441832FFF7A7FF08BD2DE9F041BA
:101920009AB00446884615461E465822002104A84F
:1019300006F066FCE5B1002E3AD1296D0023019333
:1019400003230093062303AA204600F09BFF0746CB
:10195000012384F8A4302A6DE368B2FBF3F202FBA2
:1019600003F35E1C002F4ED038461AB0BDE8F0815C
:1019700004AA41462046FFF727FE08B104ADDAE786
:10198000314806F0B9FA25682046FFF721F90246EA
:1019900029462E4806F0B0FA40F2BB322C492D48B9
:1019A00006F0AAFA41462C4806F0A6FA0527DBE71E
:1019B000296D0123019304230093062303AA2046E3
:1019C00000F060FF074694F8A4306BB960B9B8F135
:1019D000000F0DD04046FEF7E5FB02464FF0FF3307
:1019E00041462046FFF7E7F9002384F8A430B2E728
:1019F000002DF9D04FF0FF33AA7805F110012046F1
:101A0000FFF7D9F9F0E7042303AA3146204600F096
:101A1000C3FE0128A8D101230193022300930423CC
:101A200003AA3146204600F02DFF07462B6DE168E2
:101A3000B3FBF1F303FB01F12046FFF71FF9002888
:101A400092D0022282708FE7A89A0008B89A000804
:101A5000509B0008E4950008489C000870B582B0CF
:101A600004460E46154600230193012300930623E6
:101A700000F008FF08B102B070BD009014232A1DC9
:101A8000311D204600F0EFFEF5E700002DE9F043A0
:101A90008BB004460E4615461F46DDF848900023DD
:101AA0008DF80F30D1F814801046FEF77BFB4028EC
:101AB0002DD84FF0FF3304930593069307930893B3
:101AC0000993654B05932846FEF76CFB8DF82000C3
:101AD000CDF8249059FA80FC0CF118020692E368C4
:101AE000103B9A4226D8B8F1FF3F35D00DF10F03D5
:101AF000069A31462046FFF78BFB8146002836D0F8
:101B0000B9F1000F70D048460BB0BDE8F0835348E0
:101B100006F0F2F925682046FFF75AF802462946F2
:101B20004F4806F0E9F940214E4806F0E5F94FF03C
:101B30000509E8E7494806F0DFF925682046FFF780
:101B400047F802462946464806F0D6F9464806F0C8
:101B500043FA4FF00709D6E731462046FFF784FEE7
:101B60008046B0F1FF3FC1D14FF00709CBE70790A6
:101B7000042208A900F0BCFD0790042209A900F086
:101B8000B7FD07909DF82020294600F0B1FD079091
:101B9000099A394600F0ACFD079004AA4146204658
:101BA000FFF75CFF81460028ADD19DF820302A4622
:101BB00008F11801204600F0A5FE81469DF80F307F
:101BC0003BB143469DF8202029462046FFF7F3F815
:101BD00096E79DF820204244099B1A441832716808
:101BE0002046FFF761F8ECE79DF820104144099B7F
:101BF0003A461831204600F085FE8146002882D101
:101C00000123019302230093062304AA41462046A0
:101C100000F038FE814600287FF475AF9DF80F3044
:101C2000002B3FF470AF0D4806F066F9256820469A
:101C3000FEF7CEFF02462946094806F05DF940F25C
:101C4000E6420A490A4806F057F90A4806F0C4F97C
:101C5000012384F8303056E74B563030A89A0008FC
:101C6000B89A0008609C00088C9C0008509B0008F3
:101C7000E4950008AC9C00082DE9F04F83B00446C1
:101C80000D469AB31E46924600F18C080846FEF7B0
:101C900089FA0246334641462046FFF739FEB0F145
:101CA000FF3F39D004F134094A4629462046FFF760
:101CB0008BFC834638B100234A4629462046FFF76D
:101CC0002DFE074638B9009653462A46414620461F
:101CD000FFF7DCFE0746BBF1000F00D05FB194F8C0
:101CE000303083B9384603B0BDE8F08F0123FFF7E9
:101CF00015FE0746F6E701234A4629462046FFF728
:101D00000DFE0746EBE72846FEF74CFA811918311D
:101D10002046FFF7DDFCE5E70727E3E72DE9F0477D
:101D2000B0B0064688460B78022B27D0D8F808209A
:101D300029A93046FFF730FD8146B0F1FF3F00F0A2
:101D4000A28096F831301BB198F80030032B1BD0DD
:101D5000D8F8087000233A4629A93046FFF758FA08
:101D6000002501950123009306232FAA49463046FA
:101D700000F088FD043F2C46AA4634E000230A46C2
:101D80001946FFF7CBFDD1E702AC412200212046E6
:101D900006F036FA98F8022008F11001204606F005
:101DA00049FA13AA21463046FFF7F8FB0028CFD0A6
:101DB0004FF0000A5DE02025D8F8503019190DF1D8
:101DC0004C0A2B4652460431304600F0D6FC04EB58
:101DD0000901012300932B4652460431304600F09E
:101DE00042FD82462C44BC4205D204F12003BB4292
:101DF000E1D33D1BE0E70123019302230093062377
:101E00002FAA4946304600F03DFDF368B9FBF3F1D7
:101E100098F802204A44D8F80C000244183203FB18
:101E200001F13046FEF740FF08F110044B4698F8E8
:101E3000022021463046FEF7BEFF144806F05CF84B
:101E400035683046FEF7C4FE02462946104806F0C3
:101E500053F840F222420F490F4806F04DF8CDF8F2
:101E60000090D8F85030224698F802100B4806F03F
:101E700043F80123424600213046FFF74FFD50460C
:101E800030B0BDE8F0874FF0070AF8E7A89A0008DD
:101E9000B89A0008509B0008E4950008D49C0008FC
:101EA000F0B585B004460E46457815B10378032B8E
:101EB00009D02378012B4BD015B1022B53D000252C
:101EC000284605B0F0BD2C4806F016F837683046B5
:101ED000FEF77EFE02463946284806F00DF804F16A
:101EE0001002A178264806F007F821463046FFF791
:101EF00015FFB0B9204805F0FFFF34683046FEF703
:101F000067FE024621461D4805F0F6FF40F2416299
:101F10001C491D4805F0F0FF1C4806F05DF800253F
:101F2000CEE7154805F0E8FF37683046FEF750FE6B
:101F300002463946114805F0DFFF40F2436211497D
:101F4000114805F0D9FFA168114805F0D5FFB7E7A2
:101F50000125019505230093062303AA216D304630
:101F600000F090FCACE7236DA27804F1100130463C
:101F7000FEF721FF0025A3E7A89A0008B89A0008F9
:101F8000049D0008509B0008E4950008509D00083F
:101F90006C9D00082DE9F0418CB005460C461646B4
:101FA0000023089309930A930B93C268B1FBF2F3E1
:101FB00002FB13138BB1264805F09EFF2C682846C0
:101FC000FEF706FE02462146224805F095FF224A0A
:101FD0002249234805F090FFFEE700F036FC074653
:101FE00018B138460CB0BDE8F08108AF4FF0FF38AB
:101FF000CDF82080CDF82480CDF82880CDF82C8035
:1020000001220421384600F087FB012204210DF152
:10201000210000F081FB134B09930A96CDF82C8028
:102020000123009310233A462146284600F01BFC6A
:10203000074602A9002302934B608B60CB600B61C3
:102040004B610394CDF81C802846FFF724F9C8E7BC
:10205000A89A0008B89A00085CA100082C9B000808
:10206000B4980008464442302DE9F043A1B00C6812
:1020700007783FB105460E468378023BDBB2012B61
:1020800004D90027384621B0BDE8F0834168012318
:10209000019303230093042303AA0131204600F097
:1020A000F1FB6B6810331E9321E03F4805F024FFDD
:1020B000D4F800802046FEF78BFD024641463B489F
:1020C00005F01AFF40F26A4239493A4805F014FF18
:1020D0000EAA9DF82A10384805F00EFF0AAA2946D4
:1020E0002046FEF72FFF1E90B0F1FF3F27D00AA930
:1020F0002046FEF7D1FF9DF82930002BD5D09DF862
:102100002830023BDBB2012BCFD80AA92046FFF7CB
:1021100005FE0028E2D0244805F0EEFED4F8008049
:102120002046FEF755FD02464146204805F0E4FEF4
:102130000EAA9DF82A10214805F0DEFECEE74FF0EA
:10214000FF3269682046FFF725FFD6F808806B68E4
:10215000B360002229462046FEF7BAFD60611248AE
:1021600005F0CAFED4F800902046FEF731FD024685
:1021700049460E4805F0C0FE40F272420C490D4837
:1021800005F0BAFE69680E4805F0B6FE012304AA00
:1021900041462046FFF7DCF820B97368089A9A4256
:1021A0003FF670AF00276DE7A89A0008B89A0008BC
:1021B000509B0008E4950008E89D0008BC9D0008BD
:1021C0001C9E0008F8B503781BBB044615460B6837
:1021D00001330B60967EEEB90F4805F08DFE2F6837
:1021E0002846FEF7F5FC024639460C4805F084FE09
:1021F00040F222620A490B4805F07EFE61680A48F7
:1022000005F07AFE4FF0FF3261682846FFF7C2FE04
:1022100000E000263046F8BDA89A0008B89A0008E9
:10222000509B0008E4950008389E000870B582B005
:102230000446037EABB10E461546C36903B1984709
:102240002B4653F8102B00936B6831462046FFF75E
:10225000E3F90546236A0BB120469847284602B0A9
:1022600070BD094805F048FE25682046FEF7B0FC21
:1022700002462946054805F03FFE2168044805F05E
:102280003BFE0025EAE700BFA89A0008B89A0008BC
:10229000809E000830B587B004460D4680221F4955
:1022A00001A800F067FA024629462046FFF7BEFF64
:1022B00088B3054601461948FEF724FDB0B9059BD1
:1022C000802B17D9164805F017FE25682046FEF723
:1022D0007FFC02462946134805F00EFE059A802130
:1022E000114805F009FE002007B030BD0B4800235F
:1022F0004355F9E70A4805F0FFFD25682046FEF73B
:1023000067FC02462946074805F0F6FD074805F038
:1023100063FE0020E8E70020E6E700BF300400206D
:10232000A89A0008B89A0008A89E0008F89E00081D
:1023300038B50446037E83B10D46C36903B198479F
:102340000123002229462046FFF7E8FA0546236AC2
:102350000BB120469847284638BD094805F0CCFD0A
:1023600025682046FEF734FC02462946054805F05C
:10237000C3FD2168044805F0BFFD0825EBE700BF59
:10238000A89A0008B89A0008809E000870B5044614
:10239000037E8BB10E461546C36903B198476B683F
:1023A0002A6831462046FFF767FC0546236A0BB1D1
:1023B00020469847284670BD084805F09DFD2568D1
:1023C0002046FEF705FC02462946054805F094FD27
:1023D0002168044805F090FD0825EBE7A89A00085D
:1023E000B89A0008809E000870B586B004460D4675
:1023F0007AB116461046FDF7D5FE0246314601A8D1
:1024000000F0B8F9024629462046FFF7BFFF06B0A4
:1024100070BDFFF78DFFFAE72DE9F04389B0044660
:10242000C36903B19847002307E003F1150204EBE9
:10243000C2024FF0FF31516001333F2BF5D9002527
:102440002F462369AB420AD94FF0FF322946204676
:10245000FFF7A0FD074618BBE3681D44F1E700261F
:102460000CE04FF0FF33079358F809206B68009099
:1024700002A92046FFF70AFB97B90136E36AB34287
:102480000ED9D4F8288006EB46054FEA850908EBFB
:102490008505A8680028E4D16868FDF783FEE0E7B9
:1024A00000236361236A0BB120469847384609B080
:1024B000BDE8F08330B5A3B00446002205920123A5
:1024C00080F831300292234B0193009005AB06A9AE
:1024D000FFF7C5F8A37E13B1059B002B37D1236905
:1024E000E268B3FBF2F3059A934218D000220292FD
:1024F000194B01930092234606A92046FFF7AFF837
:10250000164B0093002322460CA92046FFF708F83B
:1025100094F83030B3B12046FFF728F9F0E71048BF
:1025200005F0EAFC25682046FEF752FB02462946E4
:102530000C4805F0E1FC0C4805F04EFD2046FFF785
:102540006BFFD3E7002084F8310023B030BD0220B8
:10255000FBE700BFC521000877170008A11E00088F
:10256000A89A0008B89A0008349F000870B58CB08B
:1025700004461D46109B00930023FEF771FA0646A1
:10258000002840F09980E3690BB12046984700236A
:1025900084F8303084F83130002D35D004F1280330
:1025A00095E8030083E80300002205928DF81320CC
:1025B00062610292444B01930DF11303009305AB4A
:1025C00006A92046FFF74BF8059B63613F4805F0DD
:1025D00093FC25682046FEF7FBFA024629463C4854
:1025E00005F08AFC40F2EF623A493B4805F084FC72
:1025F00061693A4805F080FC2369E268B3FBF2F3B5
:10260000012B05D9002223E00023E362A362CBE77C
:102610002E4805F071FC25682046FEF7D9FA0246DF
:1026200029462B4805F068FC2D4A2E492E4805F016
:1026300063FCFEE702EB420304EBC303002183F8D3
:10264000A8124FF0FF31C3F8BC12C3F8AC1201322C
:10265000072AEFD9002307E003F1150204EBC202B9
:102660004FF0FF31516001333F2BF5D9174805F08A
:1026700043FC25682046FEF7ABFA0246294614487B
:1026800005F03AFC40F2FF621249134805F034FCB1
:102690002169164805F030FC236A0BB120469847A3
:1026A0002046FFF707FF0646E3690BB1204698472F
:1026B000236A0BB12046984731462046FEF790FA30
:1026C00030460CB070BD00BF990D0008A89A0008F4
:1026D000B89A0008509B0008E4950008689F00081D
:1026E0004CA10008889F0008B4980008D49F0008F7
:1026F000C04309E011F8013B4340DBB2054A52F800
:10270000233083EA1020624602F1FF3C002AF1D117
:10271000C0437047A8A1000838B505461446CA1D35
:10272000D208FF2105F06CFD4CB1631ED8082B5C6C
:1027300004F00704FF22224113402B5438BD4FF010
:10274000FF30FBE710B54C1E22464FF0000C02E0B4
:102750000CF1010C1A46531E4AB1DA0810F802E0D7
:1027600003F0070180220A411EEA020FF0D1A4EB18
:102770000C0010BD01604260704710B5447E34B952
:102780008068FEF775F8002803DB002010BD0220EA
:10279000FCE70220FAE7000038B552B11C461546A6
:1027A0000733DB08FFF7E9FF21462846FFF7CAFF9A
:1027B00038BD064805F0A0FB202005F0AFFB044A19
:1027C0000449054805F098FBFEE700BFF09F0008AC
:1027D00080A1000804A00008B49800082DE9F04783
:1027E00088B082460E4617468946002416E020250A
:1027F0001BE003F120026A4412F8204C0133AB4283
:102800000BD2FF2CF5D003F120026A4412F8202CE1
:10281000FF2AEED106EB0309EBE74646BE420CD297
:1028200006F12008B845E2D3BD1B2B466A46314667
:102830005046FFF7A2FF0023E1E7FF2C03D0384604
:1028400008B0BDE8F0874F46F9E708B5437E0BB105
:10285000012008BD8068FEF7B3F8002801DB0020E6
:10286000F7E70120F5E710B5447E34B98068FEF73C
:1028700053F8002803DB002010BD0320FCE70320F1
:10288000FAE7000070B582B01446069A9A4214D254
:1028900005460E46ECB119462046FFF73DFFB0F164
:1028A000FF3F22D09DF81C3000930123221881198C
:1028B0002846FFF7D8FF02B070BD0D4805F01CFB9D
:1028C000202005F02BFB0B4A0B490C4805F014FBAC
:1028D000FEE7074805F010FB202005F01FFB054A26
:1028E0000749064805F008FBFEE70020E3E700BFC4
:1028F000F09F000894A1000814A00008B4980008F4
:1029000004A000080BB90020704700B583B09C46B6
:10291000002300936346FFF7A6FF03B05DF804FBB6
:1029200038B505460C4601E0A4F580543CB1284674
:1029300000F0D2FB05F58055B4F5805FF4D8002097
:1029400038BD10B50B4614460146184600F0E5FBAD
:10295000204610BD10B50B4614460146184600F03F
:1029600093FB204610BD08B500F024FB002008BDF5
:1029700038B504460D46002208214FF0904002F081
:1029800071F801221146084802F06CF84FF0FF334D
:102990002A462146054800F0A5FD012208214FF0F6
:1029A000904002F05FF838BD000400481005002098
:1029B00000B583B08DF80700002208214FF0904049
:1029C00002F050F800220121094802F04BF84FF0C4
:1029D000FF3301220DF10701064800F083FD0122BB
:1029E00008214FF0904002F03DF803B05DF804FB81
:1029F000000400481005002000B583B08DF80700E2
:102A0000002208214FF0904002F02CF801221146DC
:102A1000094802F027F84FF0FF3301220DF10701BA
:102A2000064800F05FFD012208214FF0904002F0BF
:102A300019F803B05DF804FB0004004810050020FD
:102A400010B50D4C01220221204602F00BF80520A2
:102A500000F0ECFF00220221204602F003F81420CF
:102A600000F0E4FF01220221204601F0FBFF782064
:102A700000F0DCFF10BD00BF00040048F0B583B0DB
:102A80001A3087B21A3296B201318DB201339CB23C
:102A90002A20FFF78DFF3B0A8DF804308DF8057072
:102AA000330A8DF806308DF8076001AE04213046F8
:102AB000FFF75EFF2B20FFF77BFF2B0A8DF804301A
:102AC0008DF80550230A8DF806308DF80740042153
:102AD0003046FFF74DFF2C20FFF76AFF03B0F0BD33
:102AE0004F2814D810B582B014469F2901D902B0DE
:102AF00010BD0B460246FFF7C1FF230A8DF80430D4
:102B00008DF80540022101A8FFF732FFEFE770477B
:102B100070B582B0BDF818404F283DD816461D4606
:102B20009F2939D88318502B02DDC0F15006B6B268
:102B30004B19A02B02DDC1F1A005ADB2321892B243
:102B40006B189BB2013B013A9BB292B2FFF796FF22
:102B5000230A8DF804308DF80540002208214FF03B
:102B6000904001F07FFF012211460C4801F07AFFEE
:102B7000002407E04FF0FF33022201A9084800F0CB
:102B8000B1FC013406FB05F3A342F3D8012208216E
:102B90004FF0904001F066FF02B070BD00040048A5
:102BA0001005002000B583B00090A0235022002122
:102BB0000846FFF7ADFF03B05DF804FB70B584B0C5
:102BC000012208214FF0904001F04CFF5C4C0122A3
:102BD0001146204601F046FF01220221204601F065
:102BE00041FF01220421204601F03CFFFFF728FFAE
:102BF0001120FFF7DDFE782000F018FF3620FFF7E8
:102C0000D7FE0820FFF7F8FEB120FFF7D1FE4D4BAD
:102C10001D68ADF800502E0C8DF802600321684647
:102C2000FFF7A6FEB220FFF7C3FEADF800508DF807
:102C3000026003216846FFF79BFEB320FFF7B8FE52
:102C4000414B93E803000090ADF80410062168465C
:102C5000FFF78EFEB420FFF7ABFE0320FFF7CCFE9C
:102C6000C020FFF7A5FE394B1B68ADF800301B0CE8
:102C70008DF8023003216846FFF77AFEC120FFF786
:102C800097FEC020FFF7B8FEC220FFF791FE0D238C
:102C9000ADF8003002216846FFF76AFEC320FFF757
:102CA00087FE42F68D23ADF8003002216846FFF71B
:102CB0005FFEC420FFF77CFE4EF68D63ADF800305A
:102CC00002216846FFF754FEC520FFF771FE04207D
:102CD000FFF792FE3A20FFF76BFE0520FFF78CFE10
:102CE000E020FFF765FE1A4D95E80F008DE80F0014
:102CF00010216846FFF73CFEE120FFF759FE103532
:102D000095E80F008DE80F0010216846FFF730FEB0
:102D10002120FFF74DFE0A2000F088FE1320FFF768
:102D200047FE0A2000F082FE2920FFF741FE142012
:102D300000F07CFE0020FFF735FF04B070BD00BF3F
:102D40000004004830A0000834A000083CA000089F
:102D500040940008A0F16103DBB2192B24D820387D
:102D6000C0B2A0F12103392B22D8DFE803F04523BC
:102D70002527292B2D2F31333537393B3D3F3F3F19
:102D80003F3F3F3F3F3F3F412121212121214343FD
:102D90004343434343434343434343434343434303
:102DA00043434343434343432028DAD10020704741
:102DB00000207047022070470320704704207047AE
:102DC000052070470620704707207047082070478D
:102DD000092070470A2070470B2070470C2070476D
:102DE0000D2070470E2070470F2070472038704725
:102DF0001A20704726387047012070475A2813D888
:102E0000412819D239280BD8302801D30120704726
:102E10002038C0B20F2801D8012070470020704729
:102E20003A280BD1012070476138C0B2192801D867
:102E30000120704700207047012070470020704734
:102E40000AB1944603B9704700B583B0BDF81020AD
:102E500000926246FFF75CFE03B05DF804FB0000E1
:102E60002DE9F04F83B0BDF830B09DF834704F2895
:102E700032D8804689469A469F292DD81046FFF7BA
:102E800069FF019000251EE005EB090104EB080035
:102E9000524689B280B2FFF723FE0134A4B2072C58
:102EA0000FD8802323411E42EED1002FF5D105EB30
:102EB000090104EB08005A4689B280B2FFF710FE00
:102EC000EBE70135ADB20F2D06D8054B019A03EBA8
:102ED00002135E5D0024E2E703B0BDE8F08F00BF9F
:102EE000E0A500082DE9F04F83B0BDF830909DF8C3
:102EF00034A0BAB380460D461F461646044612E07B
:102F00001035ADB2013644460DE0CDF804A0CDF841
:102F100000903B465A4629462046FFF7A1FF19E09C
:102F2000902D1FD8013696F800B0BBF1000F19D0D4
:102F3000BBF10A0FE4D05846FFF760FF0028E4D148
:102F4000CDF804A0CDF800903B462022294620462B
:102F5000FFF786FF0834A4B2482CE1D91035ADB292
:102F60004446DDE703B0BDE8F08F10B582B0002421
:102F70000194BDF810400094FFF7B4FF02B010BDFB
:102F8000F0B587B004460D461E4602AF1346084A08
:102F90001021384605F028F8BDF83030009333464C
:102FA0003A4629462046FFF7E0FF07B0F0BD00BFD4
:102FB00040A0000808B5012210214FF0904001F018
:102FC00051FD08BD00B587B08DF80F0000238DF8C6
:102FD00017304FF0FF33009301230DF117020DF16D
:102FE0000F01044800F083FB9DF8170007B05DF85F
:102FF00004FB00BF7405002070B506460D4614465C
:10300000002210214FF0904001F02CFD9F20FFF78F
:10301000D9FFFF20FFF7D6FF3070FF20FFF7D2FF68
:103020002870FF20FFF7CEFF2070012210214FF003
:10303000904001F017FD70BD08B5002210214FF03F
:10304000904001F00FFD0620FFF7BCFF0122102188
:103050004FF0904001F006FD08BD08B50022102198
:103060004FF0904001F0FEFC0520FFF7ABFFFF2082
:10307000FFF7A8FF10F0010FF9D1012210214FF046
:10308000904001F0EFFC08BD70B506460C461546B1
:10309000002210214FF0904001F0E4FC0320FFF7E4
:1030A00091FFC4F30740FFF78DFFC4F30720FFF73C
:1030B00089FFE0B2FFF786FF002404E0FF20FFF75E
:1030C00081FF30550134AC42F8D3012210214FF07A
:1030D000904001F0C7FC70BD10B50446FFF7ACFF8F
:1030E000002210214FF0904001F0BCFC2020FFF79F
:1030F00069FFC4F30740FFF765FFC4F30720FFF73C
:1031000061FFE0B2FFF75EFF012210214FF0904017
:1031100001F0A8FCFFF7A1FF10BD2DE9F041064624
:103120000F46904611E0305DFFF74CFF0134AC4292
:10313000F9D3012210214FF0904001F093FCFFF7EA
:103140008CFF2F442E44A8EB0508B8F1000F1DD0CA
:10315000FCB2C4F58075454528BF4546FFF76CFFB6
:10316000002210214FF0904001F07CFC0220FFF77C
:1031700029FFC7F30740FFF725FFC7F30720FFF735
:1031800021FF2046FFF71EFF0024D0E7BDE8F081B5
:10319000FEE7FEE7FEE7FEE7FEE7704708B50248F8
:1031A00002F036FC08BD00BF6806002000B583B001
:1031B0000D4B1A6E42F001021A661A6E02F00102FD
:1031C0000092009A9A6D42F080529A659B6D03F0CE
:1031D00080530193019B00220F216FF0010001F049
:1031E000B7FD03B05DF804FB001002402DE9F04785
:1031F00082B00546884617461E4600F011FC0A9B21
:103200001B1A03EB060900F00BFC8246284B1B68D7
:10321000C3F3CB3309FB03F301932B689C6838EAB3
:1032200004040CBF01230023BB423DD0B6F1FF3F95
:10323000F3D000F0F5FBA0EB0A00484503D2019B58
:1032400073BB9946E9E72A68536823F0E0035360AB
:103250006B68B3F5827F0BD0AB6AB3F5005F14D017
:10326000012385F85D30002385F85C3003201CE0E5
:10327000AB68B3F5004F02D0B3F5806FECD12A688C
:10328000136823F040031360E6E72A68136823F409
:10329000005313602A68136843F400531360DFE798
:1032A000019B013B0193B8E7002002B0BDE8F08725
:1032B000280000202DE9F04782B006460C4615464E
:1032C0001F4600238DF8033000F0AAFB0A9B1B1A4F
:1032D00003EB070800F0A4FB8146D6F800A0304BB2
:1032E0001B6803EB8303C3EBC3031B0D08FB03F352
:1032F000019302E0B7F1FF3F12D133689B6803EA04
:10330000040CAC4547D0B4F5C06FF3D1002DF1D11A
:103310009AF80C30DBB28DF803309DF80330E9E702
:1033200000F07EFBA0EB0900404503D2019B73BB7C
:103330009846E2E73268536823F0E003536073680D
:10334000B3F5827F0BD0B36AB3F5005F14D00123CD
:1033500086F85D30002386F85C3003201CE0B368FB
:10336000B3F5004F02D0B3F5806FECD1326813682B
:1033700023F040031360E6E73268136823F4005338
:1033800013603268136843F400531360DFE7019B56
:10339000013B0193B1E7002002B0BDE8F08700BF18
:1033A0002800002070B582B004460D4616460092F3
:1033B0000B4600224FF4C051FFF77CFFB0B90096D6
:1033C0002B46002280212046FFF710FFA8B9009667
:1033D0002B4600224FF4C0612046FFF76BFF50B12F
:1033E000236E43F020032366032004E0236E43F0A2
:1033F00020032366032002B070BD236E43F0200338
:1034000023660320F7E700286AD010B50446436A14
:1034100033B94368B3F5827F05D00023C36102E06E
:103420000023036143610023A36294F85D30002B05
:103430004DD0022384F85D302268136823F04003E6
:103440001360E368B3F5E06F47D90022B3F5706FFE
:1034500004D0B3F5E06F01D00023A362636803F4E6
:103460008273A16801F404410B43216901F0020158
:103470000B43616901F001010B43A16901F4007183
:103480000B43E16901F038010B43216A01F080012F
:103490000B43A16A01F4005120680B430360638B66
:1034A00003F00403616A01F010010B43616B01F04A
:1034B00008010B43E16801F470610B432168134379
:1034C0004B6000202066012384F85D3010BD84F835
:1034D0005C30204602F0E4F8ABE74FF48052B5E7E9
:1034E000012070472DE9F04383B004468946904699
:1034F0001D4600F095FA94F85D30012B40F0F08005
:103500000646DFB2B9F1000F00F0EB80B8F1000F12
:1035100000F0E78094F85C30012B00F0E680012396
:1035200084F85C30032384F85D3000232366C4F8FC
:103530003890A4F83C80A4F83E802364A4F844307A
:10354000A4F846302365E364A368B3F5004F1ED0AA
:1035500023681A6812F0400F03D11A6842F0400243
:103560001A60E368B3F5E06F47D9636813B1B8F147
:10357000010F20D1A26B23681288DA60A36B02339B
:10358000A363E38F9BB2013B9BB2E38713E0226806
:10359000136823F0400313602268136843F48043E8
:1035A0001360D5E700F03CFA801BA84202D3B5F1C6
:1035B000FF3F1AD1CDB1E38F9BB2002B75D02368AA
:1035C0009A6812F0020FEDD0A26B1288DA60A36B3A
:1035D0000233A363B4F83EC01FFA8CFC0CF1FF3C2D
:1035E0001FFA8CFCA4F83EC0E5E7012384F85D30A7
:1035F000002384F85C30032773E0636813B1B8F1EB
:10360000010F28D1E38F9BB2012B0CD9A26B236849
:103610001288DA60A36B0233A363E38F9BB2023B91
:103620009BB2E38717E0A26B236812781A73A36B2F
:103630000133A363E38F9BB2013B9BB2E3870AE0B4
:10364000A36B1B88D360A36B0233A363E38F9BB28E
:10365000023B9BB2E387E38F9BB233B3226893684C
:1036600013F0020F0FD0E38F9BB2012BE8D8A36BAE
:103670001B781373A36B0133A363E38F9BB2013BEE
:103680009BB2E387E7E700F0CBF9801BA84202D3A7
:10369000B5F1FF3F01D1002DDDD1012384F85D306C
:1036A000002384F85C3003271BE03246294620467D
:1036B000FFF778FE08B120232366A36833B901938E
:1036C0002368DA6801929B680193019B012384F8C7
:1036D0005D30002384F85C30236E13B9002700E0CE
:1036E0000227384603B0BDE8F0830227F9E72DE949
:1036F000F8430446884691461F46089D00F090F91D
:10370000064694F85D306268012B0BD0D9B2B2F551
:10371000827F40F05B81A368002B40F05A8104292E
:1037200040F05981B8F1000F00F05781B9F1000F56
:1037300000F05581002F00F0548194F85C30012B8B
:1037400000F05181012384F85C3094F85D30042B43
:1037500002D0052384F85D3000232366C4F840902E
:10376000A4F84670A4F84470C4F83880E787A787A7
:10377000E3642365E368B3F5E06F01D8012F23D933
:103780002268536823F48053536023681A6812F048
:10379000400F03D11A6842F040021A60E368B3F5A3
:1037A000E06F5FD963680BB1012F0BD1A26B236867
:1037B0001288DA60A36B0233A363E38F9BB2013BF1
:1037C0009BB2E387012730E02268536843F48053BB
:1037D0005360DAE7A26B1288DA60A36B0233A3634B
:1037E000E38F9BB2013B9BB2E387002723689A6873
:1037F00012F0010F11D0B4F8462092B26AB1DA6823
:10380000236C1A80236C02332364B4F846309BB2D5
:10381000013B9BB2A4F84630012700F001F9831B5D
:10382000AB4202D3B5F1FF3F14D1E38F9BB22BB96A
:10383000B4F846309BB2002B00F0B18023689A6840
:1038400012F0020FD2D0E28F92B2002ACED0002F17
:10385000CCD0BFE7012384F85D30002384F85C30CE
:103860000320B4E063680BB1012F0FD1E38F9BB24B
:10387000012B0DD9A26B23681288DA60A36B023387
:10388000A363E38F9BB2023B9BB2E387012749E02E
:10389000A26B236812781A73A36B0133A363E38FBF
:1038A0009BB2013B9BB2E387F0E7E28F92B2012A21
:1038B0000CD9A26B1288DA60A36B0233A363E38F87
:1038C0009BB2023B9BB2E38700273DE0A26B1278DC
:1038D0001A73A36B0133A363E38F9BB2013B9BB2CB
:1038E000E387002730E02268536843F48053536035
:1038F00001270DE0226C1B7B1370236C01332364C2
:10390000B4F846309BB2013B9BB2A4F84630012785
:1039100000F086F8801BA84202D3B5F1FF3F36D1F4
:10392000002D34D0E38F9BB223B9B4F846309BB25C
:10393000002B34D023689A6812F0020F04D0E28F73
:1039400092B20AB1002FB0D123689A6812F0010F29
:10395000DED0B4F8462092B2002AD9D0B4F846207E
:1039600092B2012AC6D9DA68236C1A80236C02331A
:103970002364B4F846309BB2023B9BB2A4F84630B5
:10398000B4F846309BB2012BADD90127C0E7012323
:1039900084F85D30002384F85C30032017E0324661
:1039A00029462046FFF7FEFC48B9012384F85D3024
:1039B000002384F85C30236E4BB1012007E0202304
:1039C0002366002384F85C30012000E00220BDE87B
:1039D000F8830220FBE70220F9E70120F7E7012046
:1039E000F5E70120F3E70220F1E710B5032001F02D
:1039F0009DF90F2001F086FF10B10124204610BD73
:103A00000446FFF7D3FBF9E7034B1B78034A116821
:103A10000B441360704700BF20000020B404002056
:103A2000014B1868704700BFB404002038B5044645
:103A3000FFF7F6FF0546B4F1FF3F02D0044B1B78B9
:103A40001C44FFF7EDFF401BA042FAD338BD00BF76
:103A50002000002030B583B00446204B9B6D13F04E
:103A6000805F0BD001F0D0F8B0F5007F17D0802C2C
:103A70001FD82DD0702C2DD000211BE0174DAB6D21
:103A800043F08053AB65AB6D03F080530193019B12
:103A900001F0BAF8AB6D23F08053AB65E4E7802CFE
:103AA00003D9A02C03D9022104E0002102E0012166
:103AB00000E003210A4A136823F007030B43136055
:103AC000136803F007038B4206D1002003B030BD1A
:103AD0000221EFE70121EDE70120F7E700100240A6
:103AE00000200240254A9368D26802F0030213F0D6
:103AF0000C0309D00C2B05D0042B3BD0082B3BD05A
:103B000000200FE0012AF7D11C4A126812F0080FBA
:103B10000CD11A4AD2F89420C2F30322184951F862
:103B2000220013B10C2B06D000207047134A1268F4
:103B3000C2F30312F2E7114BDB6803F00303022B1D
:103B400016D0032B00D10F480C49CA68C2F30212E9
:103B50000132CB68C3F3062300FB03F3B3FBF2F39C
:103B6000C868C0F3416001304000B3FBF0F070471B
:103B70000548E9E7044870470248704700100240D2
:103B800030A9000800127A000024F400002800F098
:103B90001C83F0B583B00446964B9D6805F00C0578
:103BA000DE6806F00306036813F0100F5AD0E5B183
:103BB0000C2D18D0A369002B00F0BB808D4A136830
:103BC00043F001031360FFF72BFF0746894B1B6887
:103BD00013F0020F40F09A80FFF722FFC01B02286B
:103BE000F4D90320FCE2012EE4D1824B1B6813F0D0
:103BF000020F03D0A369002B00F0E982206A7D4BFD
:103C00001B6813F0080F5BD07A4B1B6803F0F003BE
:103C100098425CD8774B1A6842F008021A601A681A
:103C200022F0F002216A0A431A605A6822F47F42A5
:103C3000E16942EA01225A60002D60D0FFF752FF8D
:103C40006C4B9B68C3F303136B4AD35C03F01F03F5
:103C5000D8406A4B18606A4B186801F053FE002880
:103C600040F0BE82236813F0010F00F08180082D20
:103C700075D00C2D71D06368B3F5803F00F097804C
:103C8000B3F5A02F00F099805A4B1A6822F48032C5
:103C90001A601A6822F480221A606368002B00F010
:103CA0009980FFF7BDFE0746524B1B6813F4003F97
:103CB0005ED1FFF7B5FEC01B6428F5D903208FE263
:103CC0004C4BD3F894301B0903F0F003A0E7FFF747
:103CD000C1FE002840F07D82464B1A6842F008027F
:103CE0001A601A6822F0F002216A0A431A605A68C0
:103CF00022F47F42E16942EA01225A609EE7206A8B
:103D0000FFF7A8FE002899D0012069E2394B1A6814
:103D100042F008021A601A6822F0F002216A0A438F
:103D20001A605A6822F47F42E16942EA01225A602D
:103D300098E7304A136823F001031360FFF770FE21
:103D400007462C4B1B6813F0020F8BD0FFF768FE61
:103D5000C01B0228F5D9032042E2032E8BD1254B4C
:103D60001B6813F4003F03D06368002B00F033821C
:103D7000236813F0020F58D0042D45D00C2D41D0EC
:103D8000E368002B77D01B4A136843F480731360F9
:103D9000FFF746FE0646174B1B6813F4806F61D190
:103DA000FFF73EFE801B0228F5D9032018E2114AD6
:103DB000136843F4803313606FE703F18043A3F586
:103DC0003C331A6842F480221A601A6842F4803246
:103DD0001A6062E7FFF724FE0746064B1B6813F4E0
:103DE000003FC5D0FFF71CFEC01B6428F5D9032097
:103DF000F6E100BF0010024068A90008280000207A
:103E000024000020022EBBD1A44B1B6813F4806F4A
:103E100003D0E368002B00F0E081A04A536823F050
:103E2000F853216943EA01635360236813F0080FD4
:103E30004CD063699BB3994AD2F8943043F00103A4
:103E4000C2F89430FFF7ECFD0646944BD3F894305B
:103E500013F0020F3AD1FFF7E3FD801B0228F4D9DB
:103E60000320BDE18D4A536823F0F853216943EAEA
:103E700001635360D9E7894A136823F480731360A0
:103E8000FFF7CEFD0646854B1B6813F4806FCCD040
:103E9000FFF7C6FD801B0228F5D90320A0E17F4A69
:103EA000D2F8943023F00103C2F89430FFF7B8FD44
:103EB00006467A4BD3F8943013F0020F06D0FFF782
:103EC000AFFD801B0228F4D9032089E1236813F099
:103ED000040F7AD0714B9B6D13F0805F36D16F4B1E
:103EE0009A6D42F080529A659B6D03F08053019366
:103EF000019B01266A4B1B6813F4807F28D0A368BE
:103F0000012B39D0052B3FD0644BD3F8902022F001
:103F10000102C3F89020D3F8902022F00402C3F8E5
:103F20009020A368002B3DD0FFF77AFD07465B4B3E
:103F3000D3F8903013F0020F46D1FFF771FDC01B8C
:103F400041F288339842F2D9032049E10026D1E7B3
:103F5000534A136843F480731360FFF761FD07460B
:103F60004F4B1B6813F4807FC9D1FFF759FDC01B6D
:103F70000228F5D9032033E1484AD2F8903043F0C3
:103F80000103C2F89030CCE7444BD3F8902042F0C4
:103F90000402C3F89020D3F8902042F00102C3F845
:103FA0009020BEE7FFF73CFD07463C4BD3F890302E
:103FB00013F0020F08D0FFF733FDC01B41F2883326
:103FC0009842F2D903200BE1E6B9236813F0200FE1
:103FD00035D0636AE3B1314AD2F8983043F0010337
:103FE000C2F89830FFF71CFD06462C4BD3F89830EA
:103FF00013F0020F23D1FFF713FD801B0228F4D921
:104000000320EDE0254A936D23F080539365DCE7B0
:10401000224AD2F8983023F00103C2F89830FFF713
:10402000FFFC06461D4BD3F8983013F0020F06D064
:10403000FFF7F6FC801B0228F4D90320D0E0A36A26
:10404000002B00F0CC80022B17D00C2D00F0CC8080
:10405000124A136823F080731360FFF7E1FC0446F3
:104060000E4B1B6813F0007F00F0A880FFF7D8FC10
:10407000001B0228F4D90320B2E0084BDB6803F0F0
:104080000301E26A91420DD00C2D00F0AB80034B8E
:104090001B6813F0806F2FD00120A1E000100240B8
:1040A0000070004003F07002216B0139B2EB011F78
:1040B000EAD103F4FE42616BB2EB012FE4D103F0CD
:1040C0007842A16BB2EBC16FDED103F4C001E26BA9
:1040D0005208013AB1EB425FD6D103F0C063226CC3
:1040E0005208013AB3EB426FCED1404B1B6813F03C
:1040F000007F49D0002073E03C4A136823F08073AE
:104100001360FFF78DFC0546384B1B6813F0007FEA
:1041100006D0FFF785FC401B0228F5D903205FE09D
:10412000324AD36832491940E36A206B013843EAC6
:104130000013606B43EA0023E06B4008013843EA58
:104140004053206C4008013843EA4063A06B43EAC7
:10415000C0631943D160136843F080731360D36860
:1041600043F08073D360FFF75BFC04461F4B1B6872
:1041700013F0007F06D1FFF753FC001B0228F5D98E
:1041800003202DE000202BE0184B1A6842F08072CB
:104190001A60DA6842F08072DA60FFF741FC044688
:1041A000124B1B6813F0007F06D1FFF739FC031B8D
:1041B000022BF5D9032013E0002011E00B4AD1684F
:1041C0000C4B0B40D36000200AE001207047012017
:1041D00006E0012004E0012002E0012000E00020D0
:1041E00003B0F0BD0120FBE70120F9E70010024019
:1041F0008C809D01FCFFEEFE002800F0AF8070B5C2
:104200000D460446594B1B6803F007038B420BD243
:10421000564A136823F007030B431360136803F037
:1042200007038B4240F09C80236813F0020F0CD0F0
:10423000A2684F4B9B6803F0F0039A4205D94C49A2
:104240008B6823F0F0031A438A60236813F0010F90
:1042500039D06368032B09D0022B26D063BB444AB4
:10426000126812F0020F06D1012076E0404A12686F
:1042700012F0007F76D03E498A6822F00302134391
:104280008B60FFF7CDFB0646394B9B6803F00C03B0
:104290006268B3EB820F16D0FFF7C2FB801B41F2BE
:1042A00088339842F0D9032057E0314A126812F45B
:1042B000003FE0D1012050E02D4A126812F4806FD7
:1042C000D9D1012049E0236813F0020F0CD0A26875
:1042D000274B9B6803F0F0039A4205D224498B6870
:1042E00023F0F0031A438A60204B1B6803F0070396
:1042F000AB420AD91D4A136823F007032B4313600E
:10430000136803F00703AB422ED1236813F0040FA8
:1043100006D0174A936823F4E063E1680B43936087
:10432000236813F0080F07D0114A936823F46053F1
:10433000216943EAC1039360FFF7D4FB0C4B9B68F0
:10434000C3F303130B4AD35C03F01F03D8400A4B9B
:1043500018600A4B186801F0D5FA70BD012070474B
:104360000120FAE70120F8E70120F6E700200240EB
:104370000010024068A90008280000202400002046
:10438000014B1868704700BF2800002008B5FFF7F0
:10439000F7FF054B9B68C3F30223044AD35C03F089
:1043A0001F03D84008BD00BF0010024060A90008EC
:1043B00008B5FFF7E5FF054B9B68C3F3C223044A2A
:1043C000D35C03F01F03D84008BD00BF00100240BB
:1043D00060A900080F2303600B4B9A6802F00302E8
:1043E00042609A6802F0F00282609A6802F4E06229
:1043F000C2609B68DB0803F4E0630361034B1B6846
:1044000003F007030B6070470010024000200240D9
:10441000F8B504460D46594BDB6813F0030F18D06E
:10442000564BDB6803F003030268934202D0012677
:104430003046F8BD002A00F09C80504BDB68C3F387
:10444000021301334268934201D00126F0E70026AF
:1044500019E00368022B55D0032B5AD0012B40F0F2
:104460008A80464A126812F0020F5ED04348C26842
:1044700022F073026168013943EA01131343C360F8
:104480000026002ED4D13D4A136823F080631360C8
:10449000FFF7C6FA0746394B1B6813F0006F05D0CB
:1044A000FFF7BEFAC31B022BF5D90326002EBFD19E
:1044B000002D3CD131490B6923F0784323F4FE43AE
:1044C000A068E268D20642EA002213430B612B4A3D
:1044D000136843F080631360FFF7A2FA0546274B89
:1044E0001B6813F0006F05D1FFF79AFA401B0228F2
:1044F000F5D90326002E9BD1204A1369A1690B43ED
:10450000136195E71D4A126812F4806FAED101263F
:104510008EE71A4A126812F4003FA7D1174A1268B0
:1045200012F4802FA2D1012682E70126A9E7012DEE
:104530000FD01248026922F0C06222F4FE42A16844
:1045400063695B08013B5B0643EA01231A4302618E
:10455000BDE70A48026922F4C00222F4FE42A168C3
:1045600023695B08013B5B0543EA01231A430261AF
:10457000ADE701265CE701265AE700BF00100240C4
:104580002DE9F04182B00446036813F4006F26D091
:10459000436CB3F5000F06D0B3F5400F1DD09BB1AF
:1045A000012637461DE0B34AD36843F48033D36015
:1045B0000027B04AD2F8883023F44003616C0B43E3
:1045C000C2F8883000260CE000210430FFF720FFFD
:1045D00007460028EDD0064603E00027E9E700265D
:1045E0003746236813F4003F6BD0A24B9B6D13F04A
:1045F000805F4CD19F4B9A6D42F080529A659B6DC3
:1046000003F080530193019B4FF001089A4A13680D
:1046100043F480731360FFF703FA0546964B1B685B
:1046200013F4807F05D1FFF7FBF9401B0228F5D971
:104630000327002F40D18F4BD3F8903013F44073F1
:1046400018D0A26D9A4212D08A4AD2F8903023F440
:104650004073D2F8901041F48031C2F89010D2F833
:10466000901021F48031C2F89010C2F8903013F00D
:10467000010F0FD1002F40F0E3807E4AD2F8903036
:1046800023F44073A16D0B43C2F8903015E04FF056
:104690000008BBE7FFF7C4F90546764BD3F8903026
:1046A00013F0020FE6D1FFF7BBF9401B41F288334C
:1046B0009842F2D90327DDE73E46B8F1000F40F0FB
:1046C000C180236813F0010F08D06A4AD2F88830FD
:1046D00023F00303216A0B43C2F88830236813F0E8
:1046E000020F08D0634AD2F8883023F00C03616AC5
:1046F0000B43C2F88830236813F0040F08D05D4ADA
:10470000D2F8883023F03003A16A0B43C2F8883016
:10471000236813F0200F08D0564AD2F8883023F4CB
:104720004063E16A0B43C2F88830236813F4007FCA
:1047300008D0504AD2F8883023F44023E16B0B4371
:10474000C2F88830236813F4806F08D0494AD2F841
:10475000883023F44013216C0B43C2F8883023685F
:1047600013F0400F08D0434AD2F8883023F4405366
:10477000216B0B43C2F88830236813F0800F08D0F8
:104780003C4AD2F8883023F44043616B0B43C2F8B3
:104790008830236813F4807F08D0364AD2F88830F6
:1047A00023F44033A16B0B43C2F88830236813F421
:1047B000002F0FD02F4AD2F8883023F04063A16C2D
:1047C0000B43C2F88830A36CB3F1006F40D0B3F153
:1047D000806F42D0236813F4802F0FD0254AD2F87F
:1047E000883023F04063E16C0B43C2F88830E36CFF
:1047F000B3F1006F39D0B3F1806F3FD0236813F469
:10480000804F0CD01B4AD2F8883023F04053216DE2
:104810000B43C2F88830236DB3F1805F36D0236834
:1048200013F4004F08D0134AD2F8883023F08043A5
:10483000616D0B43C2F88830304602B0BDE8F081AC
:104840003E463AE70B4A936D23F08053936538E771
:10485000D36843F48013D360BCE70121201DFFF728
:10486000D7FD0028B6D00646B4E7D36843F48013DA
:10487000D360C3E700100240007000400121201DFA
:10488000FFF7C6FD0028B9D00646B7E70221201D74
:10489000FFF7BEFD0028C2D00646C0E7F0B583B0E2
:1048A000002362E085685E000324B44025EA040525
:1048B000CC68B4402C438460456825EA0C054C68FC
:1048C000C4F300149C402C4344605FE0DD080835CD
:1048D00050F8254003F0070C4FEA8C0C4FF00F0EF8
:1048E0000EFA0CFE24EA0E0E0C6904FA0CF444EAEB
:1048F0000E0440F8254060E0042400E0002404FA9F
:104900000EF42C430CF1020C524D45F82C40524C45
:10491000A568D44325EA02064F6817F4801F01D02A
:1049200042EA05064C4DAE60ED6804EA05064F68A4
:1049300017F4001F01D042EA0506474DEE606D688E
:1049400004EA05064F6817F4003F01D042EA050665
:10495000414D6E602D682C404E6816F4803F01D0AA
:1049600042EA05043C4A146001330A6832FA03F44F
:104970006ED04FF0010C0CFA03FC1CEA0202F3D0DB
:104980004C6804F00304013C012C8BD94C6804F002
:104990000304032C0CD0C4685D004FF0030C0CFA28
:1049A00005FC24EA0C0C8C68AC4044EA0C04C4609E
:1049B0004C6804F00304022C88D004684FEA430ECC
:1049C0004FF0030C0CFA0EFC24EA0C0C4C6804F0BB
:1049D000030404FA0EF444EA0C0404604C6814F472
:1049E000403FC1D01D4C256E45F001052566246E63
:1049F00004F001040194019C4FEA930C0CF10205B0
:104A0000144C54F8255003F0030E4FEA8E0E0F2479
:104A100004FA0EF425EA0405B0F1904F3FF46EAFAE
:104A20000F4CA0420ED004F58064A0420CD004F5D7
:104A30008064A0420AD004F58064A0423FF45CAFD9
:104A400007245CE701245AE7022458E7032456E7C9
:104A500003B0F0BD0000014000040140001002401E
:104A6000000400480AB18161704781627047436960
:104A700001EA030221EA030141EA02418161704730
:104A800000285FD010B5044690F84130002B48D084
:104A9000242384F841302268136823F00103136053
:104AA0006368226823F0706313612268936823F4BB
:104AB00000439360E368012B38D0A368226843F475
:104AC00004439360E368022B36D02268536823F4D2
:104AD000006353602268536843F0007343F400435B
:104AE00053602268D36823F40043D360236962696A
:104AF0001343A169226843EA0123D360E369216A71
:104B000022680B4313602268136843F001031360AB
:104B100000206064202384F84130206384F8420040
:104B200010BD80F8403000F029FDB1E7A36822688D
:104B300043F400439360C5E72268536843F400637D
:104B40005360C7E701207047034690F84120202AB0
:104B500023D190F84020012A21D0012280F8402062
:104B6000242280F841200068026822F001020260DD
:104B70001868026822F480520260186802680A43CA
:104B8000026019680A6842F001020A60202283F874
:104B90004120002083F84000704702207047022027
:104BA0007047034690F84120202A21D190F84020F8
:104BB000012A1FD0012280F84020242280F84120C1
:104BC0000068026822F0010202601868026822F49C
:104BD000706242EA0122026019680A6842F001022A
:104BE0000A60202283F84120002083F840007047AB
:104BF0000220704702207047024A136843F4807312
:104C00001360704700700040024B186800F4C060E9
:104C1000704700BF00700040B0F5007F0FD01F4B01
:104C20001B6803F4C063B3F5806F34D01B4A13686C
:104C300023F4C06343F48063136000207047174B74
:104C40001B6803F4C063B3F5007F20D0134A1368D8
:104C500023F4C06343F400731360114B1B683222CA
:104C600002FB03F30F4AA2FB03239B0C013300E07A
:104C7000013B0A4A526912F4806F01D0002BF7D130
:104C8000064B5B6913F4806F03D10020704700204E
:104C90007047032070470020704700BF007000403D
:104CA0002800002083DE1B43002807DB00F01F02E2
:104CB000400901239340024A42F82030704700BF68
:104CC00000E100E0002808DB0901C9B200F1604002
:104CD00000F5614080F80013704700F00F000901F3
:104CE000C9B2014B1954704714ED00E000B500F053
:104CF0000700C0F1070CBCF1040F28BF4FF0040CF3
:104D0000031D062B0FD9C31E4FF0FF3E0EFA0CF009
:104D100021EA000199400EFA03FE22EA0E0241EA5E
:104D200002005DF804FB0023EEE70000074AD368A9
:104D300023F4E0631B041B0C000200F4E060034357
:104D400043F0BF6343F40033D360704700ED00E0ED
:104D500010B50446054BD868C0F30220FFF7C6FF24
:104D600001462046FFF7AEFF10BD00BF00ED00E09A
:104D700008B5FFF799FF08BD034AD2F8883043F41D
:104D80007003C2F88830704700ED00E010B50346AC
:104D90000C4A0D490D48006840B10C4800680344B6
:104DA000521A934206D8094A136010BD0748084CAE
:104DB0000460F2E703F098FA0C2303604FF0FF3031
:104DC000F3E700BF00C0002000040000B80400208A
:104DD0003021002070B50C461646002506E0AFF3E2
:104DE0000080214601F8010B01350C46B542F6DB87
:104DF000304670BD70B50C461646002504E014F828
:104E0000010BAFF300800135B542F8DB304670BDD1
:104E10004FF0FF3070474FF400534B600020704755
:104E20000120704700207047026852E8003F23F4D9
:104E3000907342E800310029F6D1026802F10803BC
:104E400053E8003F23F00103083242E80031002913
:104E5000F3D1036E012B06D02023C0F8803000234D
:104E6000036683667047026852E8003F23F0100330
:104E700042E800310029F6D1EEE7000010B5044603
:104E800083680269134342691343C269134301688B
:104E90000868944A02401A430A602268536823F45F
:104EA0004053E1680B435360A16922688E4B9A42DC
:104EB00001D0236A1943936823F430630B43936052
:104EC00023688A4A93421FD0894A934230D0894A44
:104ED000934246D0844A934255D0102282498B4255
:104EE0007AD0E069B0F5004F00F0A680082A00F201
:104EF0000981DFE812F0CE00E200CC000701E500F6
:104F0000070107010701E80002F55842D2F888209E
:104F100002F00302032A09D8DFE802F002044A067D
:104F20000122DBE70422D9E70822D7E71022D5E7E0
:104F300002F5E632D2F8882002F00C020C2A0ED8D4
:104F4000DFE802F0070D0D0D090D0D0D380D0D0DEB
:104F50000B000022C2E70422C0E70822BEE71022AD
:104F6000BCE702F5E432D2F8882002F03002202AB1
:104F700022D004D812B3102A22D10422AEE7302A5C
:104F800020D10822AAE702F5C832D2F8882002F41C
:104F90004062B2F5006F17D005D8BAB1B2F5806F94
:104FA00016D104229AE7B2F5406F13D1082295E793
:104FB000022293E7022291E702228FE700228DE787
:104FC00010228BE7102289E7022287E7002285E77B
:104FD000102283E7102281E7082A77D8DFE802F061
:104FE000087610760D76767605004FF4004008E0DE
:104FF000FFF7CCF928B9002085E0FEF773FDF9E74B
:105000003D48626802EB4203834261D8B0EB023F45
:1050100060D8010E00025308C0184FF0000341F1A0
:105020000001FBF71DF9A0F54072344B9A4253D8AA
:105030002368D860002066E0082A4FD8DFE802F035
:105040000721054E244E4E4E0B002B4803E0FFF780
:105050009DF9002844D06268530803EB4003B3FB7A
:10506000F2F3A3F110014FF6EF72914248D89AB2D1
:1050700022F00F02C3F3420313432268D3600020DF
:1050800041E0FFF795F9E4E7FEF72CFDE1E71A4868
:1050900003E0FFF77BF9002839D0636800EB530089
:1050A000B0FBF3F0A0F110024FF6EF739A4230D844
:1050B000236880B2D860002025E0FFF779F9EAE79D
:1050C000FEF710FDE7E74FF40040E6E701201AE0A5
:1050D000012018E0012016E0012014E0012012E078
:1050E000002010E0F369FFEF00800040003801402D
:1050F00000440040004800400024F400FFFC0F0082
:10510000012000E001200023A366E36610BD00201B
:10511000F9E70120F7E700BF436A13F0080F06D054
:105120000268536823F40043416B0B435360436AA6
:1051300013F0010F06D00268536823F40033816A2C
:105140000B435360436A13F0020F06D002685368A2
:1051500023F48033C16A0B435360436A13F0040F96
:1051600006D00268536823F48023016B0B4353601D
:10517000436A13F0100F06D00268936823F480533B
:10518000816B0B439360436A13F0200F06D00268D3
:10519000936823F40053C16B0B439360436A13F08D
:1051A000400F0AD00268536823F48013016C0B434C
:1051B0005360036CB3F5801F0BD0436A13F0800F6C
:1051C00006D00268536823F40023816C0B435360BC
:1051D00070470268536823F4C003416C0B4353606B
:1051E000EBE72DE9F84305460E4617469946DDF8EC
:1051F00020802B68DC6936EA04040CBF01240024FB
:10520000BC4236D1B8F1FF3FF3D0FEF709FCA0EB6A
:105210000900404530D8B8F1000F2FD02B681A682C
:1052200012F0040FE5D0802EE3D0402EE1D0DA69F1
:1052300012F0080F11D1DA6912F4006FD9D04FF4CF
:1052400000621A622846FFF7EFFD2023C5F884307C
:10525000002385F8783003200CE008241C622846DF
:10526000FFF7E2FDC5F88440002385F8783001207F
:1052700000E00020BDE8F8830320FBE70320F9E706
:105280002DE9F04182B01E46C36F202B5BD104464E
:105290000D46904600295AD00AB9012054E0002357
:1052A000C0F884302123C367FEF7BAFB0746A4F891
:1052B0005080A4F85280A368B3F5805F02D04FF00D
:1052C00000081AE0236963B34FF0000815E02023BB
:1052D000E367032038E038F8023B2268C3F3080391
:1052E0009362E36F03F02103212B32D1B4F85220F3
:1052F00092B2013A92B2A4F85220B4F852309BB262
:1053000093B100963B46002280212046FFF769FFBB
:105310000028DCD1002DDED015F8012B23689A621D
:10532000DFE7A8460025E8E700963B46002240213B
:105330002046FFF756FF10B92023E36704E020233F
:10534000E367032000E0022002B0BDE8F081012005
:10535000FAE70120F8E730B583B004460023C0F82F
:105360008430FEF75DFB05462268126812F0080FD4
:105370000FD123681B6813F0040F26D12023E367A5
:10538000C4F8803000202066606684F8780003B09E
:1053900030BD6FF07E430093034600224FF40011AE
:1053A0002046FFF71EFF0028E3D0226852E8003FA6
:1053B00023F0800342E800310029F6D12023E3677F
:1053C000002384F878300320E1E76FF07E430093F8
:1053D0002B4600224FF480012046FFF702FF0028F1
:1053E000CCD0226852E8003F23F4907342E80031A9
:1053F0000029F6D1226802F1080353E8003F23F0A8
:105400000103083242E800310029F3D12023C4F817
:105410008030002384F878300320B8E768B310B5F3
:105420000446C36F03B32423E3672268136823F0A1
:1054300001031360636AE3B92046FFF71FFD0128EB
:1054400011D02268536823F4904353602268936814
:1054500023F02A0393602268136843F0010313606A
:105460002046FFF778FF10BD80F8783000F090F903
:10547000D9E72046FFF750FEDEE701207047000025
:10548000F0B589B003AD0024039404940594069408
:105490000794204BDA6C42F00402DA64DA6C02F012
:1054A00004020092009ADA6C42F00102DA64DA6CCB
:1054B00002F001020192019ADA6C42F00202DA640F
:1054C000DB6C03F002030293029B224618214FF08B
:1054D0009040FFF7C7FA104E224640F2073130469F
:1054E000FFF7C0FA18230393012704970594069445
:1054F00029464FF09040FFF7D1F940F2073303936C
:1055000004970594069429463046FFF7C7F909B079
:10551000F0BD00BF001002400004004808B5154867
:10552000154B036003F10453A3F5E913A3F6CC3341
:105530004360002383600122C26003614361836191
:10554000C3610362FFF79CFA50B900210948FFF7D5
:10555000FBFA40B900210748FFF723FB30B908BD2B
:10556000FAF7EAFEF1E7FAF7E7FEF3E7FAF7E4FE07
:10557000F5E700BFBC0400200058004010B59EB005
:105580000446002119911A911B911C911D915C22D6
:1055900002A802F035FE2268184B9A4201D01EB0D4
:1055A00010BD8023029302A8FEF7EAFF10BB144C43
:1055B000E36C43F00203E364E36C03F00203009343
:1055C000009B4FF44063199312231A9300231B93FB
:1055D00003231C9304231D9319A90A48FFF75EF9BE
:1055E000A36D43F48003A365A36D03F480030193CB
:1055F000019BD4E7FAF7A0FED9E700BF00580040AE
:10560000001002400004004808B51048104B036029
:105610004FF482734360002383604FF4E062C26002
:10562000036143614FF400728261C36103624362AC
:1056300083620722C262036308234363FDF7E3FE2C
:1056400000B908BDFAF778FEFBE700BF740500203B
:105650000030014008B51048104B03604FF48273CE
:105660004360002383604FF4E062C26003614361E2
:105670004FF400728261C361036243628362072256
:10568000C262036308234363FDF7BDFE00B908BD92
:10569000FAF752FEFBE700BF10050020003800407B
:1056A00000B58BB0002305930693079308930993E5
:1056B0000368254A934205D0244A934223D00BB075
:1056C0005DF804FB224B1A6E42F480521A661A6E81
:1056D00002F480520192019ADA6C42F00102DA641B
:1056E000DB6C03F001030293029BE023059302238A
:1056F0000693032308930523099305A94FF09040CF
:10570000FFF7CCF8DBE7124B9A6D42F480429A65C2
:105710009A6D02F480420392039ADA6C42F002021C
:10572000DA64DB6C03F002030493049B4FF46043E0
:10573000059302230693032308930523099305A9E0
:105740000448FFF7ABF8BAE70030014000380040EA
:10575000001002400004004808B50B480B4B0360E2
:105760004FF4E133436000238360C36003610C2284
:1057700042618361C36103624362FFF74FFE00B978
:1057800008BDFAF7D9FDFBE7D80500200038014035
:1057900010B59EB00446002119911A911B911C91DD
:1057A0001D915C2202A802F02BFD2268184B9A4240
:1057B00001D01EB010BD0123029302A8FEF7E0FE47
:1057C00018BB144B1A6E42F480421A661A6E02F429
:1057D00080420092009ADA6C42F00102DA64DB6CDB
:1057E00003F001030193019B4FF4C063199302235B
:1057F0001A9300231B9303231C9307231D9319A9BA
:105800004FF09040FFF74AF8D3E7FAF795FDD8E755
:10581000003801400010024000B595B007A90024EF
:1058200007944C608C60CC600C6106941F4D22463E
:10583000284602F06DF9224606A9284602F0CEF964
:10584000009450231A4621462046FDF7F9FA174CDA
:10585000002207A9204602F01CFA002206A92046D1
:1058600002F03DFA9DF819309DF81A209DF81C10A1
:105870009DF81D009DF81E500CAC049503900291FC
:10588000019200939DF81B30094A2021204602F026
:10589000ABFB4FF47A7001F031FD002000904FF621
:1058A000E07322460146FDF760FBD0E7BC1F0020F5
:1058B00044A0000808B5642001F020FD4FF40071F9
:1058C0000148FFF7D4F8F6E70004004808B5074A96
:1058D0000021074801F0B8FC064B1860064A002179
:1058E000064801F0B1FC064B186008BD9CA90008F1
:1058F000195800086406002078A90008B558000867
:105900006006002030B589B004461E4B1A6E42F482
:1059100080321A661B6E03F480330193019B02A947
:1059200003A8FEF757FDFEF743FD174AA2FB00232D
:105930009B0C013B1548164A026040F2E732C260F8
:105940004360002303618360836100F05BF90546D7
:1059500010B1284609B030BD0C4800F01FF80546CC
:105960000028F6D11820FFF703FA0F2C01D90125E2
:10597000EFE7002221461820FFF7EAF9054B1C60EB
:10598000E7E700BF0010024083DE1B4368060020EB
:1059900000400140240000207047000090F83D3096
:1059A000012B26D1022380F83D300268D36843F0F2
:1059B0000103D3600368124A93420CD0B3F1804FC5
:1059C00009D002F5A052934205D01A6842F00102B4
:1059D0001A600020704799680A4A0A40062A0AD0CD
:1059E000B2F5803F09D01A6842F001021A60002027
:1059F000704701207047002070470020704700BFAB
:105A0000002C014007000100704770477047704745
:105A100070B504460368DE681D6915F0020F10D0EA
:105A200016F0020F0DD06FF002021A610123037706
:105A300003689B6913F0030F64D0FFF7E6FF0023B0
:105A4000237715F0040F12D016F0040F0FD023683F
:105A50006FF004021A610223237723689B6913F411
:105A6000407F55D02046FFF7D0FF0023237715F065
:105A7000080F12D016F0080F0FD023686FF008023D
:105A80001A61042323772368DB6913F0030F46D0E0
:105A90002046FFF7BAFF0023237715F0100F12D02E
:105AA00016F0100F0FD023686FF010021A61082350
:105AB00023772368DB6913F4407F37D02046FFF754
:105AC000A4FF0023237715F0010F02D016F0010F79
:105AD00033D115F4025F02D016F0800F35D115F4E2
